:100000000C9434000C9449000C9449000C94490061
:100010000C9449000C9449000C9449000C9449003C
:100020000C9449000C9449000C9449000C9449002C
:100030000C9449000C9449000C9449000C9449001C
:100040000C9449000C9449000C9449000C9449000C
:100050000C9449000C9449000C9449000C944900FC
:100060000C9449000C94490011241FBECFEFD8E036
:10007000DEBFCDBF11E0A0E0B1E0ECEEF1E002C0E8
:1000800005900D92A431B107D9F70E94D2000C94CB
:10009000F4000C940000843108F0FFCFE82FF0E06A
:1000A000E050FF4F80810895843108F0FFCF08951C
:1000B000843108F0FFCF883028F08E3030F484E2AD
:1000C00090E008958AE290E0089587E290E0089534
:1000D000843108F0FFCF883028F08E3030F485E28C
:1000E00090E008958BE290E0089588E290E0089512
:1000F000CF93DF9300D000D0CDB7DEB789836A837A
:100100007B830E94540089810E944B008C838981EB
:100110000E945800FC0181E090E00C8002C0880F32
:10012000991F0A94E2F72A813B81908121303105A1
:1001300049F4892B80830F900F900F900F90DF91DF
:10014000CF91089580958923F5CFCF93DF9300D089
:1001500000D0CDB7DEB789836A837B830E945400C9
:1001600089810E944B008C8389810E946800FC0178
:1001700081E090E00C8002C0880F991F0A94E2F79A
:100180002A813B8190812130310549F4892B80837C
:100190000F900F900F900F90DF91CF910895809561
:1001A0008923F5CF61E070E088E00E94780061E08B
:1001B00070E088E00E94A5002FEF81EE94E02150CE
:1001C00080409040E1F700C0000060E070E088E00F
:1001D0000E94A5002FEF81EE94E0215080409040D6
:0C01E000E1F700C00000E3CFF894FFCF6F
:1001EC0000010203040506070001020304050001D7
:0401FC0002030405F1
:00000001FF
